:020000040800F2
:10000000B00700209D010008A1010008A30100081D
:10001000A5010008A7010008A901000800000000D0
:10002000000000000000000000000000AB0100081C
:10003000AD01000800000000AF010008B101000898
:10004000B3010008B3010008B3010008B3010008C0
:10005000B3010008B3010008B3010008B3010008B0
:10006000B3010008B3010008B3010008B3010008A0
:10007000B3010008B3010008B3010008B301000890
:10008000B3010008B3010008B3010008B301000880
:10009000B3010008B3010008B3010008AD10000867
:1000A000B3010008B3010008B3010008B301000860
:1000B0006D090008B301000855090008B3010008E4
:1000C000B3010008B3010008B3010008B301000840
:1000D000B3010008B3010008B3010008B301000830
:1000E000B3010008B3010008B301000800F002F8F2
:1000F00000F03FF80AA090E8000C82448344AAF183
:100100000107DA4501D100F034F8AFF2090EBAE880
:100110000F0013F0010F18BFFB1A43F0010318473B
:100120001871000038710000103A24BF78C878C1F7
:10013000FAD8520724BF30C830C144BF04680C60ED
:10014000704700000023002400250026103A28BF35
:1001500078C1FBD8520728BF30C148BF0B60704739
:10016000642904F0C782002070471FB51FBD10B579
:1001700010BD04F08FFC1146FFF7F7FF00F048F8C0
:1001800004F0ADFC03B4FFF7F2FF03BC00F0FAF992
:1001900030BF72B662B680F30888704708480047DF
:1001A000FEE7FEE7FEE7FEE7FEE7FEE7FEE7FEE727
:1001B000FEE7FEE703480449044A054B7047000088
:1001C000ED000008B0010020B0070020B0030020BF
:1001D000B003002010B5092000F07BF9482000F0A2
:1001E0001BF84FF4FA31482000F0E6F9002141F6FF
:1001F0001F4000F057FA00F0BBFA00F016FB00F0C9
:10020000CBFB03F0BEFF03F0D0FF00F04BFE10BDB0
:10021000FFF7E0FF00BFFEE74FF0E021096921F0A2
:1002200004014FF0E0221161C21700EB5272C2F3D9
:10023000C702234B1A701946097801EB4102C2EB41
:10024000C1114FF6FF7202EAC1011E4A11807047C8
:1002500001461B4A12784A434FF0E0235A610022BC
:100260009A6101221A6100BF4FF0E022106900F08C
:1002700001021AB100F48032002AF5D000224FF0BA
:10028000E0231A619A61704701460E4A12884A4378
:100290004FF0E0235A6100229A6101221A6100BFE7
:1002A0004FF0E022106900F001021AB100F4803230
:1002B000002AF5D000224FF0E0231A619A617047BE
:1002C000180000201A000020A34A0A400243A34B52
:1002D0001A6070470146072323EA010212029F4B6E
:1002E0001B1D18684FF6FF0318409D4B1843104321
:1002F0009A4B1B1D186070472DE9F0410746884650
:1003000014461D462846FFF7E5FFC5F1040007FA2D
:1003100000F60F20284100EA0800064306F00F0609
:10032000E21704EBD2625211920002F1E022D2F8FD
:1003300000212146E31704EBD3635B11A4EB431CBC
:10034000012303FA0CF31A432046E31704EBD363AB
:100350005B119B0003F1E023C3F800218148005D9D
:1003600040EA06107F490855BDE8F08170B50446A3
:100370000B46CE1701EB9676C6F38700CE1701EB3E
:100380009676B610A1EB8606B606350E764B9B69BF
:1003900043F00103744EB3614FEAB63353F8203093
:1003A0000F26AE40B343714E46F82030334653F823
:1003B000203004FA05F61E436C4B43F820606C4B6A
:1003C0001B6801268E403343694E336002F00103FF
:1003D00043B1674B0C331B6801268E403343644E98
:1003E0000C36336002F0020343B1614B08331E68E0
:1003F00001238B401E435E4B08331E6070BD00B569
:10040000002059490861C8601420486100208861B3
:10041000C8610846006840F001000860084640686E
:10042000544908405049486008460068524908400D
:100430004D4908600846006820F48020086008469E
:10044000406820F4FE0048600020886000214FF0E2
:100450000060FFF739FF00BD10B540480830006864
:1004600040F004003D49083108603F48C06940F051
:1004700080503D49C8614148406840F480703F4920
:1004800048600846006840F00400086008460068BC
:1004900040F002000860FFF77BFE10BD3048001DF1
:1004A0002E49091D08607047014649062E4A926987
:1004B00042F001022C4B9A612C4A083A526822F011
:1004C000E0622A4B083B5A601A4652680A435A6057
:1004D000704730B504460025FFF791FF22480068B9
:1004E00040F480302049086000BF1F480068400C7D
:1004F0000028FAD04FF480601B494860A01EC4B2A7
:100500000846406840EA844048600846406840F435
:10051000803048601A48006840F03200184908608E
:100520001148006840F080700F49086000BF0E4815
:100530000068400E0028FAD00B48406840F00200E6
:100540000949486005E008484068C0F3870505F0A0
:100550000305022DF7D130BD80FFFF1F08ED00E03D
:100560000000FA0500E400E000100240080001402D
:10057000000401400000FFF8FFFFF6FE007000409D
:1005800000200240014600BF704700BF384A128871
:1005900002F04002002AF9D0C2B2354B1B1D1A806E
:1005A00070473349091D088000BF3149098801F0AF
:1005B00040010029F9D070472DE9F05F05460E464D
:1005C000300105F037FD81462A4905FB01F005F0B1
:1005D00031FD8246494605F0E3FB0746384605F003
:1005E000F1FC84B2204605F025FD8346394605F02E
:1005F00066FE82464FF0834105F064FD814605F0BA
:10060000E1FC80464FF6FF7000EA041404EB08009A
:1006100084B21948806940F004001749886108468F
:10062000806940F4804088611448006820F47F604D
:10063000124908600846006840F40B6008600E48E4
:10064000C06840F480400C49C8600846C06820F487
:100650008040C860064808300480001D008842F2CF
:100660000C01084302490C310880BDE8F09F0000EE
:100670000038014040420F000010024004080140D1
:100680003648806940F00800344988613448006881
:1006900080B233490860084600683249084330494F
:1006A0000860704700B502460B46FFF7E9FF2B488C
:1006B000806940F40060294988610846806940F0FB
:1006C00004008861284800684FF20F0188432649DA
:1006D0000860084600684BF20B0108432249086095
:1006E00022480280001F038020481038008840F410
:1006F000C0401E4910390880081F008840F0600083
:10070000091F0880081D008840F40060091D08804A
:10071000081F008840F00800091F088013480C38A3
:10072000008840F4805011490C3908800846008840
:1007300040F0010008800D481830008840F4004067
:100740000A49183108804FF4004008492C390880C4
:100750000846008840F00100088000BD00100240FB
:10076000040C014000002222040801402C2C01400E
:1007700010B58448C06940F001008249C86108464C
:10078000806940F0040088617F48006820F0FF0025
:100790007D4908600846006840F044000860C804CD
:1007A000808940F00100C90488810846808940F0B2
:1007B0004000888101231C2203211846FFF79CFD7D
:1007C00000204FF0804108854FF6FF70888508466D
:1007D000008820F4407008800846008820F06000FF
:1007E00008800846008B40F0010008830846008B13
:1007F00040F4807008830846008C20F002000884D2
:100800000846008C20F0200008840846008B40F049
:10081000300008830846008940F00300088108463C
:10082000008840F00100088010BD10B55548C0692F
:1008300040F004005349C8610846806940F0080050
:1008400088615248006820F07F405049086008469F
:10085000006840F0884008604D48008840F0010082
:100860004B4908800846008840F04000088001237A
:100870001E2203211846FFF73FFD002044491C318A
:1008800008804FF6FF70091D088041480C38008829
:1008900020F440703E490C3908800846008820F05A
:1008A000600008803A480C30008840F00100384968
:1008B0000C3108800846008840F480700880344875
:1008C0001430008820F002003149143108800846B5
:1008D000008820F0200008802D480C30008840F06F
:1008E00030002B490C3108802948001F008840F057
:1008F00003002749091F088025480C38008840F06C
:10090000010023490C39088010BD0146022904D09A
:1009100003290BD0042919D10FE04FF08042928CAB
:1009200010B200224FF080439A8411E0194A1288D5
:1009300010B20022174B1A800AE0154A18321288AA
:1009400010B20022124B18331A8001E0002000BFC1
:1009500000BF70470E48001D00880D48001D00882C
:1009600020F001000A49091D088070474FF08040BF
:10097000008A4FF08040008A20F001004FF0804153
:10098000088270470010024000080140000C01403E
:100990000C08004024040040F748806940F008003B
:1009A000F5498861F548006820F0FF00F3490860C8
:1009B0000846006840F033000860704710B5EF4803
:1009C000006820F0F000ED4908600846006840F03B
:1009D000300008600120EA490860EA48D0F82401A4
:1009E00008B9002010BD0120E549091F0860FFF784
:1009F0002FFC0020E349C1F8A401E14880380068D9
:100A000008B10020EEE70120FFF722FC0020DC49BE
:100A1000091F08600120E5E710B5D848006820F0FC
:100A2000F000D64908600846006840F030000860D1
:100A30000020D349091F0860D249C1F8A401012050
:100A4000FFF706FC0120CE49091F0860CD49C1F817
:100A5000A401FFF7FDFB10BD10B50024C7480068D6
:100A600020F0F000C54908600846006840F08000AA
:100A700008600120C2490860FFF7EAFB0120C14974
:100A8000C1F8A001FFF7E4FB0AE0601CC4B2322CFD
:100A900003DDFFF7C1FF002010BD0120FFF7D8FBE9
:100AA000B748803800680028EFD1B549091F0860B1
:100AB0000120F1E710B50020B149091F0860AF48D7
:100AC000006820F0F000AD4908600846006840F07A
:100AD000300008600020AB49C1F8A4010120FFF7F5
:100AE000B7FB0120A649091F0860FFF7B1FB0020F2
:100AF000A449C1F8A00110BD10B50020A049091FEC
:100B000008609E48006820F0F0009C490860084694
:100B1000006840F03000086001209A49C1F8A40143
:100B2000FFF796FB01209649091F0860FFF790FB2D
:100B300000209449C1F8A00110BD70B504468F484B
:100B4000006820F0F0008D4908600846006840F019
:100B50003000086000208A49091F0860002516E05F
:100B6000E009874908606006040E0120FFF770FB6A
:100B700001208449C1F8A001FFF76AFB00208049E9
:100B8000091F08600120FFF763FB681CC5B2082D30
:100B9000E6DB70BD2DE9F04105460E461746984646
:100BA000FFF70CFF10B90120BDE8F0816906080EBF
:100BB000FFF7C3FFFFF750FF18B9FFF72DFF012024
:100BC000F2E73046FFF7B9FFFFF746FF00240BE0DE
:100BD00018F80400FFF7B1FFFFF73EFF18B9FFF761
:100BE0001BFF0020E0E7641CBC42F1DBFFF714FFB1
:100BF0000020D9E770B5054600246048006820F061
:100C0000F0005E4908600846006840F08000086017
:100C1000002617E000205A49091F08600220FFF74C
:100C200017FB01205749C1F8A0016006040E544883
:100C30008038006808B1601CC4B20220FFF708FBCE
:100C4000701CC6B2082EE5DB15B1FFF733FF01E0DB
:100C5000FFF752FF204670BD2DE9F04106460F46D2
:100C600014461D46FFF7AAFE10B90120BDE8F08129
:100C70007106080EFFF761FFFFF7EEFE18B9FFF7E8
:100C8000CBFE0120F2E73846FFF757FFFFF7E4FEFF
:100C9000FFF794FE012101EB4601C8B2FFF74DFFBB
:100CA000FFF7DAFE0DE0012C04D10020FFF7A2FFD0
:100CB000287003E00120FFF79DFF28706D1C601E67
:100CC000C4B2002CEFD1FFF7A7FE0020CEE770B52D
:100CD00005460E460024FFF771FE2846FFF72DFF5C
:100CE000641CFFF7B9FE3046FFF727FF641CFFF7CF
:100CF000B3FEFFF763FE691CC8B2FFF71EFF641C5A
:100D0000FFF7AAFE0020FFF775FF0446FFF784FEF9
:100D1000204670BD2DE9F0410746884615461E461F
:100D20000024FFF74BFE3846FFF707FFFFF794FE5E
:100D30004046FFF702FFFFF78FFEFFF73FFE791CEB
:100D4000C8B2FFF7FAFEFFF787FE00BF0DE0681E8E
:100D5000A04204D00120FFF74DFF305503E00020F2
:100D6000FFF748FF3055601CC4B2AC42EFDBFFF721
:100D700053FE2046BDE8F08100100240040C014003
:100D8000A4812142008021422DE9F04180460D4698
:100D900016461F460024FFF711FE4046FFF7CDFE22
:100DA000FFF75AFE2846FFF7C8FEFFF755FE00BFC3
:100DB00006E0385DFFF7C1FEFFF74EFE601CC4B2CF
:100DC000B442F6DBFFF728FE0120BDE8F08170B5E4
:100DD00005460E46144631462846FFF778FF207038
:100DE000012070BD37B504460D4602AB01222946ED
:100DF0002046FFF7C9FF3EBD2DE9F8430746884668
:100E000014461D46089E6A4641463846FFF7DFFFF6
:100E100028B3601CFF2101FA00F0C4F10801294445
:100E2000491EFF220A41104300F0FF09C5F10800E6
:100E300006FA00F0C6B2C4F1070006419DF80000B2
:100E400000EA090000909DF80000304300909DF8F2
:100E5000002041463846FFF7C5FFBDE8F883002073
:100E6000FBE7F8B506460F4614461D466A46394666
:100E70003046FFF7ACFF2DB10120A0409DF80010D7
:100E8000084305E00120A0409DF8001021EA000081
:100E9000C0B200909DF8002039463046FFF7A2FF0F
:100EA000F8BD000010B51248806940F008001049F4
:100EB00088611048006820F470000E4908600846F8
:100EC000006840F4000008600A480C30006840F0F8
:100ED000200008490C310860012205211046FFF767
:100EE00045FA0223172201211846FFF705FA10BD23
:100EF00000100240000C01400146002901DA48427E
:100F000000E00846704700B503460A46002B07DAA2
:100F100001209B49086000209A49C1F8B80106E009
:100F200000209749086001209649C1F8B801184689
:100F3000FFF7E2FF94490880002A08DA0020904970
:100F40000839086001208F49C1F8B00107E001208D
:100F50008B490839086000208A49C1F8B001104661
:100F6000FFF7CAFF88490C31088000BD70B50546FF
:100F70008649284605F072F804D38549284605F0CD
:100F80006DF90ED2012400207D49091F08607D49BA
:100F9000C1F8BC017A49083908607A49C1F8B00142
:100FA00000E00024204670BD2DE9F05F7949096812
:100FB000794A12681144084605F024F87749086018
:100FC0007748006804F052FE0646764A764B04F0F5
:100FD00073FB044604F036F9714908606F480068F5
:100FE00004F044FE80466F4A704B04F065FB0446F3
:100FF0000D466B48006804F039FE064622462B4633
:1010000004F052F9824604F01DF96549086008466B
:1010100001686748006804F055FE65490860654846
:1010200001686348006805F04DF8044662480168AD
:101030005B48006805F046F80546214604F042FE8C
:101040005E4908600846006804F0A0FFBDE8F09F14
:101050002DE9F84F05460C46594E5A4F00212846B7
:1010600005F038F900903946204605F02BF8824605
:101070003046009905F026F88346514604F022FEDA
:10108000814604F083FF80464046BDE8F88F10B5E6
:1010900003F0ECF84C4800684C4908604C49B1F941
:1010A000020004F0AFFF4B49086010BD10B52020CE
:1010B000494908604948006808B9012000E000205B
:1010C0004649086008460068012803D1FFF7DFFFA2
:1010D000002010BD0220FFF718FC40422D49086097
:1010E0000420FFF712FC2C490860FFF7D0FF3948B5
:1010F000016836480068FFF7ABFF394908602648A9
:10110000016824480068FFF74FFF364908603448FB
:1011100000680968401A344908603148006831495C
:101120000968401A3149086028480068FFF71EFF27
:1011300028B92E4801682C480068FFF7E4FE00201B
:10114000C7E741F6F420284909684242914202DA91
:101150004142254A116024490968814201DD224942
:101160000860224909684242914202DA41421F4A1C
:1011700011601E490968814201DD1C490860704701
:10118000BC81214200802142342C0140000020C259
:101190000000204200000020040000203400002055
:1011A000380000209A9999999999E93F9999C93FEE
:1011B0003C000020440000204000002030000020BF
:1011C000000016449A991940840000201000002065
:1011D0007400002014000020140401402C000020A2
:1011E0002000002024000020080000200C00002027
:1011F00038B50446FB4890F82400C0B114B1022071
:10120000009001E000200090F64A1268D17BF54A78
:10121000526810786B460122FFF7BCFC10B14FF00A
:10122000FF3038BD9DF80010EE48417423E0ED48D2
:10123000807A10B94FF0FF30F3E724B1E948407CE1
:1012400008B10020EDE714B10120009001E000207A
:101250000090E44A1268D17BE24A526810786B46EB
:101260000122FFF797FC10B14FF0FF30D9E79DF84E
:101270000010DC4841740020D3E738B5002419E0A1
:10128000D8480068C07AA04204D0D6480068407DA3
:10129000A04200D10CE0D349496808786B4601228E
:1012A0002146FFF7D9FC10B14FF0FF3038BD00BF29
:1012B000601CC4B2CB4840680079A042E0DC00204A
:1012C000F4E770B504460D46C6480068C07AA042EF
:1012D00004D0C4480068407DA04202D14FF0FF30E6
:1012E00070BDC04840680079A04202DC4FF0FF307A
:1012F000F6E7BC49496808782B4601222146FFF7EA
:10130000ABFCEDE738B50446B64890F82300A042A0
:1013100001D1002038BD14B13020009001E0002040
:101320000090B048807C20B19DF8000040F00200A1
:101330000090AC4890F8220020B19DF8000040F0E9
:1013400080000090A74A1268117DA64A5268107862
:101350006B460122FFF71EFC10B14FF0FF30D9E7BA
:10136000A04880F823400020D4E738B5044604F0B4
:10137000700010B10120009005E014B10020009031
:1013800001E040200090974A1268917C954A52688B
:1013900010786B460122FFF7FDFB20B10021914838
:1013A0008172481E38BD9DF8000020F040018D4834
:1013B00001730020009004F0400020B99DF8000067
:1013C00040F00400009004F0200020B99DF80000D7
:1013D00040F00200009004F0100020B99DF80000D9
:1013E00040F00100009004F0080020B99DF80000D2
:1013F00040F0380000907B4A1268D17C794A5268EC
:1014000010786B460122FFF7C5FB20B1002175481B
:101410008172481EC6E724B1082C02D00020FFF7D5
:1014200071FF70488472002101753220FEF72CFF95
:101430000020B7E738B504466A48807CA04201D155
:10144000002038BD002C46D0664A12681179654AE2
:10145000526810786B460122FFF7FEFB10B14FF087
:10146000FF30EEE79DF8000020F0200000905D4A7C
:10147000126811795B4A526810786B460122FFF7B7
:1014800089FB10B14FF0FF30DBE70320FEF7FCFED5
:1014900002200090534890F8220020B19DF80000EF
:1014A00040F0800000904F4890F8230020B19DF854
:1014B000000040F0300000904A4A1268117D494A0D
:1014C000526810786B460122FFF764FB002851D068
:1014D0004FF0FF30B5E7434A12681179414A52682C
:1014E00010786B460122FFF7B7FB10B14FF0FF30C9
:1014F000A7E73C48807A00F0010028B19DF8000081
:1015000040F02000009004E09DF8000020F0200052
:101510000090344A12681179324A526810786B464A
:101520000122FFF737FB10B14FF0FF3089E70320AE
:10153000FEF7AAFE2B4890F8220010B18020009000
:1015400001E000200090274890F8230020B19DF88A
:10155000000040F030000090224A1268117D214ABC
:10156000526810786B460122FFF714FB10B14FF060
:10157000FF3066E71B488474002062E708B519480D
:10158000807A10B94FF0FF3008BD00200090154A56
:101590001268D17B134A526810786B460122FFF71C
:1015A000F9FA10B14FF0FF30EEE70E4A12685179A8
:1015B0000C4A526810786B460122FFF7EBFA10B123
:1015C0004FF0FF30E0E7074A12681179054A526888
:1015D00010786B460122FFF7DDFA28B14FF0FF309B
:1015E000D2E7000048000020F74890F824000028C7
:1015F00050D00C200090F44A12681179F24A5268D7
:1016000010786B460122FFF7C5FA10B14FF0FF309A
:10161000BAE7C0200090EC48807A00F0010020B1C9
:101620009DF8000040F020000090E74A1268117910
:10163000E54A526810786B460122FFF7ABFA10B109
:101640004FF0FF30A0E7E048407C10B1022000904E
:1016500001E000200090DC4A1268D17BDA4A52682F
:1016600010786B460122FFF795FA10B14FF0FF306A
:101670008AE700200090D44A12685179D24A526811
:1016800010786B460122FFF785FA002852D04FF000
:10169000FF3079E704200090CB4A12681179CA4ADA
:1016A000526810786B460122FFF774FA10B14FF0C0
:1016B000FF3069E7C448807C20B9C348807A00F0D5
:1016C000010010B94020009001E060200090BE4A67
:1016D00012681179BC4A526810786B460122FFF7F4
:1016E00059FA10B14FF0FF304EE7B748407C10B1C7
:1016F0000120009001E000200090B34A1268D17BE5
:10170000B14A526810786B460122FFF743FA10B1D4
:101710004FF0FF3038E7AC4A12685179AA4A526854
:101720001078A94B10330122FFF734FA10B14FF0B3
:10173000FF3029E7002027E770B50446002624F093
:101740000104A14890F8240008B1002070BD9E4813
:10175000807A10B94FF0FF30F8E79B48057C807A1B
:101760002040994908740846007CA04202D04FF0FE
:10177000FF3600E0002614B99348007D18B101201F
:10178000FFF736FD02E00020FFF732FD3CB1FFF726
:10179000F5FE20B18C4805744FF0FF30D6E7304697
:1017A000D4E738B504468848807A10B94FF0FF3046
:1017B00038BDBC2C02DB0120009015E0622C02DB5E
:1017C0000220009010E02A2C02DB032000900BE0A6
:1017D000142C02DB0420009006E00A2C02DB05201A
:1017E000009001E0062000907748C07A9DF8001034
:1017F000884201D10020DBE7734A12689178724A6F
:10180000526810786B460122FFF7C4F910B14FF00F
:10181000FF30CDE79DF800106B48C1720020C7E78C
:1018200038B50446282C02DD4FF0FF3038BDDCB956
:101830000020FFF767FD00208DF8000007208DF8DD
:101840000100614A1268917C5F4A526810786B46C9
:101850000222FFF79FF910B14FF0FF30E6E70021B9
:10186000594801750020E1E70120FFF74BFD2020DA
:101870008DF80000012C06D100208DF80100052014
:10188000FFF78FFF17E0052C06DC01208DF8010023
:101890000520FFF786FF0EE0142C06DC02208DF8F1
:1018A00001000A20FFF77DFF05E003208DF801000D
:1018B0001420FFF776FF9DF80100072101EB80104F
:1018C000C0B28DF80100404A1268917C3E4A5268CD
:1018D00010786B460222FFF75DF910B14FF0FF3030
:1018E000A4E70821384881720021017301210175A4
:1018F0000020FFF721FF002098E738B50446324862
:10190000807A10B94FF0FF3038BD2F4890F824008E
:1019100010B14FF0FF30F7E72B48007D50B134B1E4
:10192000282C04DCE0B2FFF77BFF0020ECE700206E
:10193000FFF776FF042C01DA042404E0B4F57A7F83
:1019400001DD4FF47A744FF47A7090FBF4F0401E8E
:10195000C0B200901C4A126851781B4A5268107835
:101960006B460122FFF716F910B14FF0FF30CBE7BD
:101970009DF80000401C4FF47A7191FBF0F081B2A9
:101980001148C1810146C9894810FFF70AFF0020AC
:10199000BAE738B504460C48807A10B94FF0FF30EA
:1019A00038BD022C06D0042C07D0082C08D0102CEF
:1019B0000FD10BE0002000900EE0082000900BE01B
:1019C0001020009008E0000048000020182000903F
:1019D00002E04FF0FF30E3E700BFF948407A9DF89E
:1019E0000010B0EBE10F01D10020D9E7F44A1268F2
:1019F000D179F34A526810786B460122FFF7CAF892
:101A000010B14FF0FF30CBE79DF80000C110EC485B
:101A100041720020C4E738B50446E948807A10B91D
:101A20004FF0FF3038BDFA2C09D0B4F5FA7F09D059
:101A3000B4F57A7F09D0B4F5FA6F0CD108E0002034
:101A400000900BE00820009008E01020009005E0D6
:101A50001820009002E04FF0FF30E3E700BFD848C5
:101A6000007A9DF80010B0EBE10F01D10020D9E71A
:101A7000D34A12689179D24A526810786B46012293
:101A8000FFF788F810B14FF0FF30CBE79DF800006A
:101A9000C010CB4908720020C4E71CB580208DF827
:101AA0000000C74A1268917CC54A526810786B469C
:101AB0000122FFF76FF810B14FF0FF301CBD64201A
:101AC000FEF7E2FB00208DF80000BD4A1268917C11
:101AD000BB4A526810786B460122FFF75BF810B1E1
:101AE0004FF0FF30EAE7B64A1268917DB44A526877
:101AF00010786B460622FFF7AFF810B14FF0FF30B9
:101B0000DCE79DF80500C007400F9DF8031001F0C9
:101B1000010140EA41009DF8011001F0010140EA95
:101B2000010494B1012C03D10121A548C17431E015
:101B3000022C03D10021A248C1742BE02146A1A0B0
:101B400002F098FD4FF0FF30B8E79D4A1268D17857
:101B50009B4A526810786B460122FFF77DF810B15E
:101B60004FF0FF30AAE79DF8000000F00F042CB9F9
:101B70009E4802F07FFD4FF0FF309FE7042C06D116
:101B80009BA002F077FD01218D48C17402E0002185
:101B90008B48C174FF218A488172FF2088490872EE
:101BA000FF2187484172C1724FF6FF71C181FF2149
:101BB000017481740121017380F82210002180F8E2
:101BC000231041750175163001604160816016383F
:101BD00080F8241080F82510C1844FF4FA60FFF7D4
:101BE0001AFF10B14FF0FF3068E70220FFF7D1FE77
:101BF00010B14FF0FF3061E72A20FFF7D2FD10B19E
:101C00004FF0FF305AE73220FFF777FE10B14FF068
:101C1000FF3053E70020FFF78FFD10B14FF0FF308A
:101C20004CE70020FFF706FC10B14FF0FF3045E70E
:101C30000020FFF79AFB002040E770477CB5044680
:101C40000D465F48807A00F0700010B94FF0FF3009
:101C50007CBD5B4A1268117B594A526810786B460A
:101C60000622FEF7F9FF10B14FF0FF30F0E79DF8C4
:101C700001009DF8001040EA012000B220809DF88C
:101C800003009DF8021040EA012000B260809DF838
:101C900005009DF8041040EA012000B2A08015B1B3
:101CA0002846FFF7CAFF0020D2E77CB504460D4660
:101CB0004348807A00F0080010B94FF0FF307CBD37
:101CC0003F4A1268517B3E4A526810786B460622A2
:101CD000FEF7C2FF10B14FF0FF30F0E79DF80100B2
:101CE0009DF8001040EA012000B220809DF803001A
:101CF0009DF8021040EA012000B260809DF80500C6
:101D00009DF8041040EA012000B2A08015B12846D9
:101D1000FFF793FF0020D2E72DE9FE4F05460C4662
:101D20002748807A18B94FF0FF30BDE8FE8F244A6B
:101D30001268917B224A5268107802AB0222FEF7A9
:101D40008BFF10B14FF0FF30EFE79DF809009DF8D1
:101D5000081040EA012006B214B12046FFF76DFFDB
:101D600017494968C88804F065F915490190496820
:101D7000B1F9080004F046F98346304604F042F910
:101D80005946009004F0A6FA8246019904F008F83A
:101D900081461F4903F096FF80464FF08F4104F0C3
:101DA00091F9074604F0F2F828600020BDE710B56D
:101DB00088B004461CB94FF0FF3008B010BD29E0D0
:101DC00048000020556E737570706F7274656420E2
:101DD000736F6674776172652070726F6475637477
:101DE000207265762025642E0A000000E871000844
:101DF00048616C662073656E73697469766974797D
:101E0000207061727420666F756E642E0D0A00007A
:101E100000000C42206830B9606820B9A06810B991
:101E2000002008B010BDFA494968087806AB0322C3
:101E30001146FEF711FF10B14FF0FF30F1E79DF8AA
:101E40001800082101EB201000F00F00ADF8000091
:101E50009DF8190001EB201000F00F00ADF8020012
:101E60009DF81A0001EB201000F00F00ADF80400FF
:101E700020684100BDF90000403091FBF0F000B255
:101E8000ADF8100060684100BDF90200403091FBE0
:101E9000F0F000B2ADF81200A0684100BDF90400F6
:101EA000403091FBF0F000B2ADF81400D849496819
:101EB000087806AB06221146FEF7CEFE10B14FF0B1
:101EC000FF30AEE79DF819009DF8181040EA012098
:101ED00000B2ADF808009DF81B009DF81A1040EA0A
:101EE000012000B2ADF80A009DF81D009DF81C10FD
:101EF00040EA012000B2ADF80C00BDF81000BDF8BA
:101F00000810084400B2ADF81000BDF81200BDF88A
:101F10000A10084400B2ADF81200BDF81400BDF874
:101F20000C10084400B2ADF81400BDF81000000A0F
:101F30008DF81800BDF81000C0B28DF81900BDF87A
:101F40001200000A8DF81A00BDF81200C0B28DF818
:101F50001B00BDF81400000A8DF81C00BDF8140029
:101F6000C0B28DF81D00AA494968087806AB062260
:101F70001146FEF70FFE10B14FF0FF3051E7002081
:101F80004FE70146A248007A30B1012807D0022865
:101F900009D003280FD10AE0FA2008800EE04FF4A0
:101FA000FA7008800AE04FF47A70088006E04FF477
:101FB000FA60088002E00020088000BF00BF002017
:101FC000704701469248407A30B1012807D0022874
:101FD00008D003280CD108E0022008700BE0042090
:101FE000087008E00820087005E01020087002E082
:101FF0004FF0FF30704700BF8548C07C18B10878AB
:102000004006000E08700020F4E701468048C07AC0
:10201000082817D2DFE800F01704070A0D1013187C
:10202000BC20088013E06220088010E02A2008808D
:102030000DE0142008800AE00A20088007E005204F
:10204000088004E000BF00BF0020088000BF00BF80
:102050000020704701466E4890F8240010B14FF000
:10206000FF3070476A48C08908800020F9E70146C0
:1020700000200880401E704701464FF0FF30704737
:1020800001466348007A30B1012807D0022808D001
:1020900003280CD108E05F4808600BE05E48086048
:1020A00008E05E48086005E05D48086002E04FF027
:1020B000FF30704700BF0020FBE701465448407ADC
:1020C00030B1012808D002280AD0032810D10BE033
:1020D0004FF4804008800EE041F69C7008800AE0D2
:1020E0004FF48050088006E04FF40060088002E062
:1020F0004FF0FF30704700BF4548C07C10B10888E2
:10210000401008800020F5E701464148007C087037
:102110000020704701463E48807A10B101200870C7
:1021200001E0002008700020704738B504463848A8
:10213000807A10B94FF0FF3038BD354A1268117CF3
:10214000334A526810786B460222FEF785FD10B1C3
:102150004FF0FF30F0E79DF801009DF8001040EAD5
:10216000012000B220800020E6E72DE9FE4F07465F
:10217000884692461D46DDF830B0002600242448EB
:1021800090F8240010B1601EBDE8FE8F002028707A
:102190001F48807A10B94FF0FF30F5E71C48007CEB
:1021A00010B94FF0FF30EFE71948007C00F0400015
:1021B00008B1B01CC6B21648007C00F0200008B17F
:1021C000B01CC6B21248007C00F0100008B1B01C70
:1021D000C6B20F48007C00F0080008B1B01DC6B2BE
:1021E0000B4A1268917A0A4A526810786B460222AA
:1021F000FEF732FD10B14FF0FF30C5E79DF801004A
:102200009DF8001040EA0129B1450BDA0020BBE738
:1022100048000020000003430000834233330342A0
:1022200033338341FC4840684088B9EB600F17DDC9
:10223000F94A1268517CF84A526810786B460122BC
:10224000FEF70AFD10B14FF0FF309DE79DF800004A
:1022500000F0100020B1FFF791F96FF0010093E753
:102260005046FFF7EAFCEC4A1268D17AEA4A526813
:1022700010786B463246FEF7EFFC10B14FF0FF309E
:1022800082E799FBF6F0401E8BF8000000202870D2
:10229000B4422AD0E048007C00F0080028B3601C5B
:1022A0001DF800001DF8041040EA012000B2A8F853
:1022B0000000E01C1DF80010A01C1DF8000041EA01
:1022C000002000B2A8F80200601D1DF80010201DBB
:1022D0001DF8000041EA002000B2A8F804002878A8
:1022E00040F008002870A01D84B2B44213D0CA4840
:1022F000007C00F0400070B1601C1DF800001DF86B
:10230000041040EA012000B23880287840F04000F4
:102310002870A01C84B2B44213D0BF48007C00F0E7
:10232000200070B1601C1DF800001DF8041040EA88
:10233000012000B27880287840F020002870A01C8E
:1023400084B2B44213D0B448007C00F0100070B1E5
:10235000601C1DF800001DF8041040EA012000B2C6
:10236000B880287840F010002870A01C84B20020AB
:102370000AE7F8B504460F461646A74890F8240029
:1023800010B94FF0FF30F8BDA348807A10B94FF074
:10239000FF30F8E7A04A1268917A9F4A5268107895
:1023A0006B460222FEF758FC10B14FF0FF30EAE70F
:1023B0009DF801009DF8001040EA0125A54203DACE
:1023C00000203070401EDEE7934840684088B5EB3F
:1023D000600F17DD904A1268517C8F4A526810785E
:1023E0006B460122FEF738FC10B14FF0FF30CAE710
:1023F0009DF8000000F0100020B1FFF7BFF86FF06B
:102400000100C0E7E2B2844B1B68D97A824B5B685B
:1024100018783B46FEF720FC10B14FF0FF30B2E7D2
:1024200095FBF4F0401E30700020ACE701467A487E
:1024300080F82210002070477CB50546764949682F
:10244000087801AB04220D21FEF706FC08B1072035
:102450007CBD9DF80700C0F301109DF8041001F049
:10246000E00140EAE1008DF800009DF80700C0F3AC
:1024700081009DF8051001F0E00140EAE1008DF8CF
:1024800001009DF8070000F003009DF8061001F020
:10249000E00140EAE1008DF8020000241CE01DF894
:1024A000040018B9002045F8240013E05B4845F803
:1024B000240006E055F82400594903F003FE45F8CE
:1024C00024001DF80400401EC0B20DF804000028CE
:1024D000F0D100BF601CC4B2032CE0DB0020B7E7E2
:1024E0002DE9FE4F06460F4600256846FFF7A4FF7C
:1024F000002442E056F8240057F82410A0EB010A0B
:10250000BAF1000F01DB514601E0CAF100010846B3
:1025100003F078FD83464FF08F4103F041FC804685
:102520005DF82400002103F0FDFC16D05DF82410B6
:10253000404603F035FC82464FF07E5103F0CAFE60
:10254000814629F0004A3748416A504603F086FE2A
:1025500012D20120A04005430EE03248C169404636
:1025600003F07CFD05D32F48016A404603F076FE58
:1025700002D20120A0400543641C032CBADB28468C
:10258000BDE8FE8F2DE9FC5F06460F460025224977
:102590004968087801AB03220D21FEF75DFB10B1FD
:1025A0000720BDE8FC9F9DF8040000F01F008DF897
:1025B00004009DF8050000F01F008DF805009DF84F
:1025C000060000F01F008DF80600002462E056F8B7
:1025D000240057F82410A0EB010BBBF1000F01DB26
:1025E000594601E0CBF10001084603F00BFD4FF026
:1025F0008F41009003F0D4FB814601A8005DC0B379
:102600000849086803F016FD83465946064803F05A
:10261000C7FB80460FE00000480000207B14AE3E60
:102620001D5A843FD864000800B04C45FE4940461E
:1026300003F048FD804601A8005D401EC0B201A91C
:1026400008550028F2D14146484603F0A9FB8346CD
:102650004FF07E5103F03EFE82462AF0004BF348D5
:102660008169584603F0FAFD13D20120A0400543CA
:102670000FE0FFE7ED480169484603F0EFFC05D3A2
:10268000EA484169484603F0E9FD02D20120A04032
:102690000543641C032C9ADB284682E72DE9F04FA2
:1026A00087B005460C46914601208DF810000020A9
:1026B0008DF81100DE4A1268917CDD4A526810786C
:1026C00004AB0222FEF766FA20B14FF0FF3007B0EC
:1026D000BDE8F08FC820FDF7D7FD00208DF8100071
:1026E000D34A1268D17BD24A5268107804AB0122D7
:1026F000FEF750FA10B14FF0FF30E8E7CC4A12680D
:102700005179CB4A5268107804AB0122FEF742FAA5
:1027100010B14FF0FF30DAE7C54A1268917CC44A25
:102720005268107804AB0122FEF734FA10B14FF072
:10273000FF30CCE7BE4A1268D17DBD4A526810789E
:1027400004AB0122FEF726FA10B14FF0FF30BEE7CE
:10275000B74A12681179B64A5268107804AB012260
:10276000FEF718FA10B14FF0FF30B0E70C208DF8EB
:102770001000AF4A12681179AD4A5268107804AB64
:102780000122FEF707FA10B14FF0FF309FE70F204C
:10279000FDF77AFDA648806A407A8DF81000A44AB9
:1027A00012689178A24A5268107804AB0122FEF7B1
:1027B000F1F910B14FF0FF3089E79D48806A007A47
:1027C0008DF810009A4A12685178994A5268107828
:1027D00004AB0122FEF7DEF910B14FF0FF3076E7CF
:1027E000B9F1000F07D09248806A807A40F0E0008B
:1027F0008DF8100004E08E48806A807A8DF8100011
:102800008B4A126891798A4A5268107804AB012287
:10281000FEF7C0F910B14FF0FF3058E7B9F1000FE3
:1028200007D08348806AC07A40F0E0008DF810003D
:1028300003E07E48C07A8DF810007D4A1268D17995
:102840007B4A5268107804AB0122FEF7A3F910B15D
:102850004FF0FF303BE7B9F1000F02D0C820FDF781
:1028600013FD40208DF81000714A12681179704AEA
:102870005268107804AB0122FEF78CF910B14FF0CA
:10288000FF3024E778208DF81000694A12685179EA
:10289000674A5268107804AB0122FEF77BF910B149
:1028A0004FF0FF3013E761498889FDF7EDFC002008
:1028B0008DF810005E4A126851795D4A52681078AE
:1028C00004AB0122FEF766F910B14FF0FF30FEE6CF
:1028D000574A1268917A564A5268107804AB02221D
:1028E000FEF7BAF910B14FF0FF30F0E69DF8110095
:1028F0009DF8101040EA012B0C209BFBF0F0C6B2B3
:102900000020A86068602860A06060602060824647
:1029100065E0474A1268D17A454A5268107804AB9C
:102920000C22FEF799F910B14FF0FF30CFE69DF879
:1029300011009DF8101040EA012000B2ADF8080027
:102940009DF813009DF8121040EA012000B2ADF886
:102950000A009DF815009DF8141040EA012000B20D
:10296000ADF80C00BDF90810206808442060BDF9DE
:102970000A10606808446060BDF90C10A068084443
:10298000A0609DF817009DF8161040EA012000B2E3
:10299000ADF800009DF819009DF8181040EA0120DC
:1029A00000B2ADF802009DF81B009DF81A1040EA35
:1029B000012000B2ADF80400BDF9001028680844F9
:1029C0002860BDF90210686808446860BDF9041009
:1029D000A8680844A8600AF1010000F0FF0AB245A7
:1029E00097DB1248D0F800C02868C117090441EAF3
:1029F0001041070462460023384601F016FE3246B5
:102A00000023CDE9020101F010FE28600748D0F84C
:102A100000C06868C117090441EA10410704624612
:102A20000023384606E0000054E3853FD8640008E0
:102A30004800002001F0F9FD32460023CDE90201F3
:102A400001F0F3FD6860FE48D0F800C0A868C11727
:102A5000090441EA1041070462460023384601F0A8
:102A6000E4FD32460023CDE9020101F0DEFDA8605D
:102A7000F348D0F804C02168C817000440EA1148A0
:102A80000F04624600233846414601F0CEFD32462F
:102A90000023CDE9020101F0C8FD2060E848D0F82C
:102AA00004C06068C117090441EA10410704624686
:102AB0000023384601F0B9FD32460023CDE902017A
:102AC00001F0B3FD6060DE48D0F804C0A068C11713
:102AD000090441EA1041070462460023384601F028
:102AE000A4FD32460023CDE9020101F09EFDA06065
:102AF000A068002804DDA068A0F58030A06003E095
:102B0000A06800F58030A0600020E0E538B50446FC
:102B1000CC4890F82400A04201D1002038BD24B355
:102B2000C84890F8250010B94FF0FF30F6E70020B4
:102B3000FEF75EFB0020FEF77DFCC249C88CFEF765
:102B4000DCFE00200090BF49496808786B460122EE
:102B50002321FEF71FF80121BA4880F82410012034
:102B6000FEF746FBFEF70AFD13E00020FEF740FBF0
:102B7000B448007C0090B349496808786B4601224C
:102B80002321FEF707F80021AE4880F82410FEF755
:102B9000F5FC0020C2E72DE9F04F8DB083460F46CB
:102BA00002200C90A74890F8240020B10020FFF7E5
:102BB000ADFF012600E0002603A8FFF7E2F905A813
:102BC000FFF7FFF901A8FFF720FA02A8FFF742FA82
:102BD0009C4890F80AA004A8FFF796FA002407E0A2
:102BE000002239465846FFF759FD00B902E0641C3F
:102BF000022CF5DB00BF022C01D1002528E00024C7
:102C000007E0012206A909A8FFF748FD00B902E084
:102C1000641C022CF5DB00BF022C01D1002517E05B
:102C200006A93846FFF75CFC00F0FF0809A95846E2
:102C3000FFF7A8FC00F0FF090025B9F1000F01D152
:102C400045F00105B8F1000F01D145F0020500BFC4
:102C5000FF207C490872FF217A484172C1724FF609
:102C6000FF71C181FF218172017401210173BDF8DF
:102C70000C00FEF7D0FE9DF81400FEF78AFEBDF8AA
:102C80000400FEF78EFDBDF80800FEF736FE504644
:102C9000FEF76BFB9DF81000FEF74EFD16B101200C
:102CA000FFF734FF28460DB0BDE8F08FF8B50446B5
:102CB0000D46164616B94FF0FF30F8BD6148807AD0
:102CC00010B94FF0FF30F8E720128DF80000E0B2A5
:102CD0008DF801009DF8010028445A494968498946
:102CE000884202DD4FF0FF30E7E7564A1268117E56
:102CF000544A526810786B460222FDF74BFF10B120
:102D00004FF0FF30D9E7EAB24E4B1B68597D4D4B6F
:102D10005B6818783346FDF73DFF10B14FF0FF3088
:102D2000CBE70020C9E7F8B504460D46164616B9AC
:102D30004FF0FF30F8BD4348807A10B94FF0FF30B4
:102D4000F8E720128DF80000E0B28DF801009DF840
:102D5000010028443B4949684989884202DD4FF017
:102D6000FF30E7E7374A1268117E364A526810781A
:102D70006B460222FDF70EFF10B14FF0FF30D9E78E
:102D8000EAB2304B1B68597D2E4B5B68187833468E
:102D9000FDF762FF10B14FF0FF30CBE70020C9E72D
:102DA0002DE9F04385B005460E46904699462548E4
:102DB00090F8250020B14FF0FF3005B0BDE8F0835A
:102DC00016B94FF0FF30F8E7002423E0281B102845
:102DD00001DD102000E0281B87B232193946204659
:102DE000FFF764FF10B14FF0FF30E6E701AA394664
:102DF0002046FFF798FF10B14FF0FF30DDE73019A4
:102E00003A4601A901F0B2FC10B16FF00100D4E71D
:102E1000E01984B2AC42D9DB4FEA28208DF80000DB
:102E200008F0FF008DF80100064A1268917E054AFD
:102E3000526810786B460222FDF7ACFE38B103E011
:102E4000D8640008480000204FF0FF30B5E70121AA
:102E50008A4880F82510A0F826900020ADE70146AA
:102E6000864890F8240008700020704702464FF012
:102E7000FF30704701464FF0FF307047F8B5054608
:102E80000F461446002C70D0B5F5FF5F01DDFF261C
:102E900005E0202D01DA012601E0C5F3471607B948
:102EA0000127282C02DD4FF0FF30F8BD7348407D2C
:102EB00028BB724890F8240038B10020FFF726FEA6
:102EC00001216E4880F8201003E000216B4880F853
:102ED00020106A481630FFF754F868481830FFF79A
:102EE00070F866481A30FFF790F864481C30FFF716
:102EF000B1F86248817A81771F30FFF705F9002029
:102F0000FEF776F90020FEF78BFC00208DF800001C
:102F10005A4A12689178594A526810786B460122D1
:102F2000FDF738FE10B14FF0FF30BEE740208DF8BE
:102F30000000524A1268D17B504A526810786B46A2
:102F40000122FDF727FE00B165E08DF800608DF8E5
:102F500001704A4A1268117A484A526810786B46E2
:102F60000222FDF717FE08B155E047E00520FDF706
:102F70008BF94248407A072101EBC000C0B28DF8BE
:102F800000003E4A1268D1793C4A526810786B467C
:102F90000122FDF7FFFD00B13DE020208DF800008B
:102FA000012C03D100208DF801000EE0052C03DC7C
:102FB00001208DF8010008E0142C03DC02208DF8BC
:102FC000010002E003208DF801009DF801000721B7
:102FD00001EB8010C0B28DF80100284A1268917C84
:102FE000264A526810786B460222FDF7D3FD00B1E5
:102FF00011E0012121484175002056E71F4A163291
:10300000002103E0505C00B105E0491C0C29F9D314
:103010004FF0FF3049E7FF2018490872FF21174899
:103020004172C1724FF6FF71C181FF21817201743B
:10303000012101730146887FFEF797F90F49C88A7D
:10304000FEF7E9FC0D49087EFEF7A3FC0B49488B0F
:10305000FEF7A7FB0949888BFEF74FFC0749C87F9D
:10306000FEF76AFB054890F8200010B10120FFF739
:103070004DFD002101484175002016E74800002061
:1030800010B5C8234FF48062F74940F6F630FFF7D9
:1030900087FE10BD10B586B00446F4A0006803900A
:1030A000F3A000680290F3A000680190F2A000680D
:1030B000009004F0030003A9085C8DF8140003A835
:1030C000C4F3C101405C8DF8150003A8C4F381115D
:1030D000405C8DF8160004F0030002A9085C8DF82E
:1030E000100002A8C4F3C101405C8DF8110002A8D1
:1030F000C4F38111405C8DF8120005AA032140F24F
:103100002640FFF7D3FD18B14FF0FF3006B010BDD9
:1031100004AA032140F22A40FFF7C8FD10B14FF086
:10312000FF30F3E7019805900098049004F0040044
:1031300058B19DF8140040F001008DF814009DF87E
:10314000100040F001008DF8100004F0200058B18C
:103150009DF8150040F001008DF815009DF8110054
:1031600040F001008DF8110004F4807058B19DF812
:10317000160040F001008DF816009DF8120040F096
:1031800001008DF8120005AA03214FF48860FFF7B3
:103190008DFD10B14FF0FF30B8E704AA032140F2D3
:1031A0003140FFF783FD10B14FF0FF30AEE7B34879
:1031B00004810020AAE71FB50446B048007A00F059
:1031C000030054F820000190AC48007A00F004009D
:1031D00010B1019840420190A848007AC0F3C100A4
:1031E00054F820000290A548007A00F0200010B1A9
:1031F000029840420290A148007AC0F3811054F82E
:10320000200003909D48008900F4807010B103985D
:10321000404203909A49019880FB0101800F40EAE7
:10322000810001909649029880FB0110820042EAD9
:10323000917002909249039880FB0110820042EA4B
:10324000917003900198000E8DF800000198000C19
:103250008DF801000198000A8DF802000198C0B2B3
:103260008DF803006A4604214FF47470FFF71EFDC9
:1032700018B14FF0FF3004B010BD0298000E8DF869
:1032800000000298000C8DF801000298000A8DF8E9
:1032900002000298C0B28DF803006A4604214FF480
:1032A0007570FFF703FD10B14FF0FF30E3E70398AF
:1032B000000E8DF800000398000C8DF801000398B3
:1032C000000A8DF802000398C0B28DF803006A4628
:1032D00004214FF47670FFF7E9FCCCE770B588B0B5
:1032E000064601A8FEF7E9FEBDF804000021C90367
:1032F00041EA5045C4036148007A00F0030056F8E3
:10330000200005905D48007A00F0040010B1059897
:10331000404205905948007AC0F3C10056F8200099
:1033200006905648007A00F0200010B106984042FE
:1033300006905248007AC0F3811056F8200007909A
:103340004E48008900F4807010B107984042079001
:103350000598C117A0FB042301FB043100FB0510F5
:10336000810041EA927005900698C117A0FB0423E2
:1033700001FB043100FB0510810041EA92700690C8
:103380000798C117A0FB042301FB043100FB0510C3
:10339000810041EA927007900598000E8DF80800B0
:1033A0000598000C8DF809000598000A8DF80A00B0
:1033B0000598C0B28DF80B000698000E8DF80C0031
:1033C0000698000C8DF80D000698000A8DF80E0086
:1033D0000698C0B28DF80F000798000E8DF8100007
:1033E0000798000C8DF811000798000A8DF812005C
:1033F0000798C0B28DF8130002AA0C214FF4257073
:10340000FFF754FC08B070BD30B585B004461DA26E
:1034100007CA02AB07C3C82C03DD4FF0FF3005B06D
:1034200030BDC82090FBF4F0401E85B2280A8DF80C
:103430000000E8B28DF801006A46022140F2162031
:10344000FFF734FC10B14FF0FF30E8E702AA0C217F
:1034500040F6C120FFF72AFC10B14FF0FF30DEE745
:10346000064884810020DAE7006500084CCD6C0036
:103470000CC92C003656760026466600AC000020AB
:1034800009E3CA02FEF2ABC4AAF1DFDFBBAFDFDFA4
:103490000146FC4880890880002070472DE9FC47E0
:1034A00006460F4606F0070010B1B7F5C86F03DDFA
:1034B0004FF0FF30BDE8FC87384602F0BBFD814687
:1034C000F14902F06DFC80466846FEF77AFD9DF8F2
:1034D0000000022806D0042816D0082826D010287C
:1034E00048D135E04FF08D41404602F0EBFD81467A
:1034F00002F068FD84B2E549404602F0E3FD8146F2
:1035000002F060FD85B238E04FF08C41404602F099
:10351000D9FD814602F056FD84B2DD49404602F0F5
:10352000D1FD814602F04EFD85B226E04FF08B4181
:10353000404602F0C7FD814602F044FD84B2D54901
:10354000404602F0BFFD814602F03CFD85B214E02A
:103550004FF08A41404602F0B5FD814602F032FD4F
:1035600084B2CD49404602F0ADFD814602F02AFD0D
:1035700085B202E04FF0FF309CE700BF20128DF8CB
:103580000400E0B28DF8050028128DF80600E8B2BC
:103590008DF8070006F00100A0B101AA02214FF446
:1035A000EA70FFF783FB10B14FF0FF3082E70DF1B7
:1035B000060202214FF49270FFF778FB10B14FF032
:1035C000FF3077E706F00200A0B101AA02214FF414
:1035D000EC70FFF76BFB10B14FF0FF306AE70DF1B5
:1035E000060202214FF49470FFF760FB10B14FF018
:1035F000FF305FE706F00400A0B101AA02214FF4FA
:10360000EE70FFF753FB10B14FF0FF3052E70DF1B2
:10361000060202214FF49670FFF748FB10B14FF0FD
:10362000FF3047E7002045E738B50446002000900A
:1036300004F0010020B19DF8000040F0300000903F
:1036400004F0020020B19DF8000040F00C00009052
:1036500004F0040020B19DF8000040F00300009049
:103660006A4601214FF4A470FFF720FB38BD38B53E
:103670000446012C01DA012402E0042C00DD0424BC
:10368000601EC0B200906A46012140F24F10FFF761
:103690000DFB38BD38B50446052094FBF0F085B22B
:1036A00028128DF80000E8B28DF801006A46022168
:1036B0004FF4EF70FFF7FAFA38BD38B5044605202D
:1036C00094FBF0F085B228128DF80000E8B28DF876
:1036D00001006A4602214FF4ED70FFF7E7FA38BDAA
:1036E000F8B505460E464FF47A7095FBF0F000FBF6
:1036F00006F4200E8DF80000200C8DF80100200A41
:103700008DF80200E0B28DF803006A4604214FF400
:10371000AE70FFF7CBFAF8BD38B50446052094FB30
:10372000F0F084B220128DF80000E0B28DF80100B4
:103730006A4602214FF4AD70FFF7B8FA38BD38B5CC
:103740000446052094FBF0F084B220128DF80000AE
:10375000E0B28DF801006A4602214FF4AC70FFF729
:10376000A5FA38BD38B5044614B94FF0FF3038BD5E
:103770006A4604214FF45870FFF7D5FA10B14FF0A4
:10378000FF30F4E79DF8000000069DF8011040EAC4
:1037900001409DF8021040EA01209DF80310084303
:1037A00020600020E3E738B50446200E8DF80000C5
:1037B000200C8DF80100200A8DF80200E0B28DF88F
:1037C00003006A4604214FF45870FFF76FFA38BDC2
:1037D00038B5044614B94FF0FF3038BD6A460421AD
:1037E0004FF47170FFF79FFA10B14FF0FF30F4E71C
:1037F0009DF8000000069DF8011040EA01409DF888
:10380000021040EA01209DF80310084300EB8000FD
:10381000800020600020E0E738B504461420B4FBA7
:10382000F0F4200E8DF80000200C8DF80100200A25
:103830008DF80200E0B28DF803006A4604214FF4CF
:103840007170FFF733FA38BD38B5044664B12020F3
:103850008DF8000028208DF8010030208DF802003E
:1038600038208DF8030004E0A3220421684600F00C
:10387000A9FF6A46042140F69E20FFF717FAFDF7DC
:103880007DFE38BDAC0000200000484300004046EB
:103890000000C045000040450000C04438B5044663
:1038A00064B1C0208DF80000C2208DF80100C42052
:1038B0008DF80200C6208DF8030004E08B2204215D
:1038C000684600F07FFF6A46042140F69820FFF723
:1038D000EDF9FDF753FE38BD3EB504466CB1FDA1D0
:1038E000D1E900208968CDE9002002916A460921CA
:1038F0004FF49760FFF7DAF93EBDF9A2D2E9001064
:103900009268CDE9010200916A4609214FF497605F
:10391000FFF7CCF9F0E73EB5044602208DF8000031
:10392000CA208DF80100E3208DF8020009208DF8EF
:1039300003006A4604216820FFF7B8F9A3208DF838
:10394000000004F0400048B1C0208DF80100C820FC
:103950008DF80200C2208DF8030006E0A3208DF848
:1039600001008DF802008DF8030004F4C07048B126
:10397000C4208DF80400CC208DF80500C6208DF8F9
:10398000060006E0A3208DF804008DF805008DF8F0
:103990000600A3208DF807008DF808008DF80900B7
:1039A0006A460A2140F6A720FFF780F904F00300D9
:1039B00018B120208DF8000002E0D8208DF800001A
:1039C0006A46012140F6B620FFF770F904F02000A6
:1039D00018B10120FFF780FF02E00020FFF77CFF15
:1039E00004F4C07008B304F4807060B1B2208DF8A4
:1039F00000008B208DF80100B6208DF802009B207E
:103A00008DF803000BE0B0208DF8000080208DF8C9
:103A10000100B4208DF8020090208DF803006A4662
:103A2000042140F6A220FFF741F904F0010020B381
:103A3000F8208DF800006A4601214FF40B60FFF773
:103A400035F9FA210720FFF729FD0720FFF7ECFDE4
:103A50000120FFF70CFE6420FFF71CFE4FF4FA7004
:103A6000FFF72BFEC821A148FFF73AFE2820FFF7F9
:103A700053FE0A20FFF763FE08E0D8208DF800000F
:103A80006A4601214FF40B60FFF710F904F00200C1
:103A900018B1D9208DF8000002E0D8208DF8000080
:103AA0006A46012140F23D70FFF700F904F004007E
:103AB00018B10120FFF7F2FE02E00020FFF7EEFE52
:103AC00004F0100018B10120FFF7BEFE02E0002054
:103AD000FFF7BAFE44F0080085494881FDF74EFD26
:103AE00000208349887304F0400018B10846807BA9
:103AF000801D887304F4C07020B17D48807B801DD8
:103B00007B49887304F0140020B17948807B103021
:103B10007749887304F0030020B17548807B001D4D
:103B20007349887300203EBD014671484089088072
:103B3000002070472DE9F0410446E07800F0C0060F
:103B4000E07800F03F05607800F0010098B1EF10D8
:103B50002846E91705EB5171C910A5EBC101491CB5
:103B600001F0FF086248006820B1614841460268E0
:103B70003846904700BF607800F0080030B15C48DC
:103B8000406818B1B0115A4A516888470020BDE812
:103B9000F08110B586B0044656A207CA03AB07C32E
:103BA00057A207CA8DE80700012C09D0022C0ED1BC
:103BB00003AA0B2140F68220FFF778F806B010BD6B
:103BC0006A460B2140F68220FFF770F8F6E74FF0C7
:103BD000FF30F3E72DE9F04F8DB0074688461546D4
:103BE0009946DDE9166B0024002030804049887B2F
:103BF0005A4605A9FEF7BDFB18B1601E0DB0BDE821
:103C0000F08F3B48807A00F01400002861D09DF8C6
:103C1000140000069DF8151040EA01409DF81610AA
:103C200040EA01209DF81710084328609DF818000D
:103C300000069DF8191040EA01409DF81A1040EA6C
:103C400001209DF81B10084368609DF81C000006C9
:103C50009DF81D1040EA01409DF81E1040EA012029
:103C60009DF81F100843A8609DF8200000069DF8ED
:103C7000211040EA01409DF8221040EA01209DF801
:103C800023100843E86004F11000C4B2286800144F
:103C90000190686800140290A86800140390E86816
:103CA0000014049001984043029901FB010003991C
:103CB00001FB0100049901FB010ABAF1706F02DBFC
:103CC000BAF1885F22DDFDF759FC00203080401EEC
:103CD00094E721E0B8AAB38DB4980D355D000000DB
:103CE000B8AAAAAAB088C3C5C700000009E3CA02DF
:103CF000AC000020D8B1B9F38BA391B609B4D900B8
:103D0000DAB1B9F38BA391B6DAB4DA00B6F90000F0
:103D100040F48070308000BF3448807A00F040006A
:103D200020B305A9601C085C095D40EA012000B2CF
:103D3000A8F8000005A9E01C095C05AAA01C105CFD
:103D400041EA002000B2A8F8020005A9601D095C44
:103D5000201D105C41EA002000B2A8F80400A01D5C
:103D6000C4B2B6F9000040F0080030801F48408916
:103D700000F4C07008B305A9601C085C095D40EA46
:103D8000012000B2388005A9E01C095C05AAA01C2E
:103D9000105C41EA002000B2788005A9601D095C32
:103DA000201D105C41EA002000B2B880A01DC4B202
:103DB000B6F9000040F0700030800C48807A00F0C6
:103DC000030018B105A90819FFF7B4FE4846FDF72E
:103DD00034FF002012E701460448016000207047CC
:103DE000014602484160002070470000AC000020FE
:103DF000014691F90020002A01DD00201EE091F922
:103E00000020002A01DA042018E091F90120002A9C
:103E100001DD012012E091F90120002A01DA0520DC
:103E20000CE091F90220002A01DD022006E091F960
:103E30000220002A01DA062000E00720704770B552
:103E400005462846FFF7D4FF0446E81CFFF7D0FFDD
:103E500044EAC00084B2A81DFFF7CAFF44EA8010FC
:103E600084B2204670BD70B588B002A905A8FEF7DF
:103E700092FE0446072C3FD101A8FEF701F90598F0
:103E800002F0C0F80646019902F01CF9054602F05E
:103E90007DF80590069802F0B5F80646019902F003
:103EA00011F9054602F072F80690079802F0AAF898
:103EB0000646019902F006F9054602F067F80790F8
:103EC00005A8FFF778F96846FEF7F7F8BDF8001087
:103ED000029848430290BDF80010039848430390AD
:103EE000BDF8001004984843049002A8FFF7F6F9C3
:103EF000FEA000F0BFFB00BF08B070BD2DE9F0438D
:103F000004460D46DDE907670021012041E0DFF8A6
:103F100000C43CF81080A0F1010CDFF8F49329F8FC
:103F20001C8009F1160C3CF81090A0F1010CDFF890
:103F3000E08308F1160828F81C9008F1160C3CF8EC
:103F40001090A0F1010C08F1160828F81C9008F157
:103F5000160C3CF81090A0F1010C08F1160828F896
:103F60001C9008F1160C3CF81090A0F1010C08F11F
:103F7000160828F81C9008F1160C3CF81090A0F1D7
:103F8000010C08F1160828F81C9000F1010C0CF047
:103F9000FF000A28BBDBDFF878C3ACF81240ACF8AE
:103FA0002850ACF83E20ACF85430ACF86A60ACF85D
:103FB00080700021002008E0DFF854C33CF910C0F5
:103FC000614400F1010C0CF0FF000A28F4DB4FF013
:103FD0000A0C91FBFCFC0FFA8CFCDFF83483A8F888
:103FE00014C0002100200AE0DFF824C30CF1160CF5
:103FF0003CF910C0614400F1010C0CF0FF000A28EC
:10400000F2DB4FF00A0C91FBFCFC0FFA8CF8DFF8A6
:1040100000C3ACF82A80002100200AE0DFF8F0C2DB
:104020000CF12C0C3CF910C0614400F1010C0CF0B7
:10403000FF000A28F2DB4FF00A0C91FBFCFC0FFAA0
:104040008CF8DFF8CCC2ACF84080002100200AE0F8
:10405000DFF8BCC20CF1420C3CF910C0614400F125
:10406000010C0CF0FF000A28F2DB4FF00A0C91FB68
:10407000FCFC0FFA8CF8DFF898C2ACF856800021EF
:1040800000200AE0DFF888C20CF1580C3CF910C09F
:10409000614400F1010C0CF0FF000A28F2DB4FF044
:1040A0000A0C91FBFCFC0FFA8CF8DFF864C2ACF848
:1040B0006C80002100200AE0DFF854C20CF16E0C85
:1040C0003CF910C0614400F1010C0CF0FF000A281B
:1040D000F2DB4FF00A0C91FBFCFC0FFA8CF8DFF8D6
:1040E00030C2ACF88280BDE8F08338B504460323C3
:1040F00002226B21D0200094FCF77EFE38BD38B53B
:104100000446022304221B21D0200094FCF774FEF5
:1041100038BD38B50446022304221C21D020009467
:10412000FCF76AFE38BD10B50446234606226B2113
:10413000D020FCF796FE10BD10B5764B01227521FC
:10414000D020FCF7E7FD7348007810BD10B5FFF7ED
:10415000F3FF682801D1012010BD0020FCE710B555
:104160000446234605226A21D020FCF77AFE10BDC2
:1041700010B50446234601223721D020FCF771FEFA
:1041800010BD10B50220FFF7B0FF0320FFF7B7FF07
:104190000020FFF7BEFF0020FFF7C5FF0020FFF75C
:1041A000DEFF0020FFF7E4FF10BD38B500200090CF
:1041B0006B46012275216820FCF74EFD56A000F0E9
:1041C00059FA9DF8000068280ED000BF5B480068CF
:1041D00000F4E0605A490843001D58490860BFF3E5
:1041E0004F8F00BF00BFFEE7FDF757FC00283CD112
:1041F0007820FDF7BAF810B947A000F03BFA782014
:10420000FDF79AFA10B94FA000F034FAC820FDF774
:1042100074FB10B955A000F02DFAFEF731FF10B96C
:104220005CA000F027FA6848FFF709FE0446FEF795
:1042300031FF10B965A000F01DFA40F27310FFF7CE
:104240006AFB10B96BA000F015FAC820FFF7DCF884
:1042500010B972A000F00EFAFFF705FE0120FEF77C
:1042600055FC10B976A000F005FA38BD2DE9F04FE5
:104270008DB00AA87B490BAB06AACDE900107A499C
:104280007A48FFF7A7FC7748008800F48070002880
:104290002AD0069801F0B6FE04464FF09D4101F089
:1042A0007FFD73490860079801F0ACFE04464FF0AB
:1042B0009D4101F075FD6F490860089801F0A2FE6C
:1042C00004464FF09D4101F06BFD6B490860099871
:1042D00001F098FE04464FF09D4101F061FD6749F1
:1042E000086063480168CBE04EE1000073657474B8
:1042F000696E6720626961732073756363657366B5
:10430000756C6C79202E2E2E2E2E2E0D0A0000009C
:10431000CA000020BC0000206D70755F7365745F7B
:1043200073656E736F7220636F6D706C657465205A
:104330002E2E2E2E2E2E0D0A000000000CED00E079
:104340000000FA056D70755F636F6E666967757260
:10435000655F6669666F20636F6D706C657465205C
:104360002E2E2E2E2E2E0D0A000000006D70755F71
:104370007365745F73616D706C655F7261746520E5
:10438000636F6D706C657465202E2E2E2E2E2E0D93
:104390000A000000646D705F6C6F61645F6D6F7424
:1043A000696F6E5F6472697665725F6669726D7758
:1043B00061726520636F6D706C657465202E2E2EA2
:1043C0002E2E2E0D0A0000009C000020646D705FF0
:1043D0007365745F6F7269656E746174696F6E2066
:1043E000636F6D706C657465202E2E2E2E2E2E0D33
:1043F0000A000000646D705F656E61626C655F66E7
:1044000065617475726520636F6D706C657465208D
:104410002E2E2E2E2E2E0D0A00000000646D705FD1
:104420007365745F6669666F5F7261746520636F40
:104430006D706C657465202E2E2E2E2E2E0D0A00AA
:104440006D70755F7365745F646D705F73746174B4
:104450006520636F6D706C657465202E2E2E2E2E78
:104460002E0D0A00800000207A0000207400002039
:104470008C00002090000020940000209800002074
:104480004FF0804001F01EFE04905C4801680498E3
:1044900001F018FE82465A4801684FF0404001F092
:1044A00011FE049057480168049801F00BFE834602
:1044B000514601F007FC059001F0D8FB804600F062
:1044C00093FB06464FF066324F4B01F0F5F8044679
:1044D00000F0B8FE4D490860484801684FF0804040
:1044E00001F0F0FD019045480168019801F0EAFDF6
:1044F0008246434801684FF0404001F0E3FD0190DF
:104500003F480168019801F0DDFD8346514601F006
:10451000E1FE81464FF07E5101F0D4FB044601F0EC
:10452000A5FBCDE904013A4801684FF0804001F055
:10453000C9FD834632480168584601F0C3FD8146F3
:104540002E4801684FF0804001F0BCFD83462D48A5
:104550000168584601F0B6FD8246494601F0B2FBBB
:10456000044601F083FBCDE90201DDE9042300F0FC
:1045700083FD07464FF06632234B01F09DF8054658
:1045800000F060FE234908600DB0BDE8F08F2DE912
:10459000F05F4221D020FCF79AFB05464121D02054
:1045A000FCF795FB05EB0024204601F02BFD82462D
:1045B0004FF08E41504601F051FE05D24FF08F4131
:1045C000504601F087FE82461349504601F0E8FB51
:1045D000834601F04BFB8046104A114B00F064FE0D
:1045E000064600220F4B01F067F8044600F02AFE51
:1045F0008246504601F0CAFCBDE8F09F94000020BE
:10460000900000209800002066A64C408400002006
:104610008C000020880000200000AA43A4703D0AFE
:10462000D743424000002440704710B54C1084EA44
:10463000530404D54042C1F1000138BF491E1B425A
:1046400004D55242C3F1000338BF5B1E00F0C6F828
:1046500014F0804F04D04042C1F1000138BF491E20
:1046600014F0004F04D05242C3F1000338BF5B1E68
:1046700010BD00000FB4044910B503AA029800F061
:1046800089F910BC5DF814FB1C0000202DE9F041F5
:104690000E460446002020622046E168884730B379
:1046A000252805D0D4E901219047206A401CF2E773
:1046B000E168204600278847050018D0A5F1410091
:1046C000192802D820354FF4006732462946204683
:1046D0002760FBF745FD40B1012804D0F61D26F008
:1046E00007060836D8E7361DD6E72846DAE7206AF7
:1046F000BDE8F0812DE9F0410646002410687529D7
:10470000314616A510D0AFF30080002802DA4042EF
:1047100013A507E031688A0701D512A502E0490711
:1047200004D511A5012401E0AFF3008000210A2285
:1047300006F1240709E0B0FBF2FCB0FBF2F302FB48
:104740001C00303078541846491C0028F3D1234609
:104750002A463046BDE8F04100F0C2B80000000033
:104760002D0000002B0000002000000040EA0103A3
:1047700010B59B070FD1042A0DD310C808C9121F0A
:104780009C42F8D020BA19BA884201D9012010BD44
:104790004FF0FF3010BD1AB1D30703D0521C07E011
:1047A000002010BD10F8013B11F8014B1B1B07D175
:1047B00010F8013B11F8014B1B1B01D1921EF1D1E6
:1047C000184610BD02F0FF0343EA032242EA024208
:1047D00000F0F4B8704770477047704753EA020C16
:1047E00000F069802DE9F04B4FF00006002B1FBF51
:1047F000B3FA83F503FA05F424FA05F65E4012BF16
:104800001643B2FA82F502FA05F4C5F120051EBF7F
:1048100022FA05FC44EA0C04203556EA044C4FEA1F
:10482000144418BF641C4FF000084FF00009904278
:1048300071EB030C39D3002919BFB1FA81F701FAE2
:1048400007F6B0FA80F700FA07F6C7F120071EBF97
:1048500020FA07FC46EA0C062037B6FBF4FCA7EB6F
:104860000507103F07F01F0BCBF120060CFA0BFBDE
:104870002CFA06F644BFB3460026202FA4BF5E469E
:104880004FF0000B5BEA060C08BF4FF0010B19EB71
:104890000B09ABFB027C48EB0608C01B06FB02CCF5
:1048A0000BFB03CC71EB0C01C1E70B460246414602
:1048B0004846BDE8F08B13B54FF000004FF0000103
:1048C000AFF30080BDE81C40704710B500F096F8CB
:1048D000006810BD10B5044600F090F8046010BDEB
:1048E0002DE9F0470D4699469246044600F124080A
:1048F0000168880604D5E06921F01001216000E01C
:104900000120A84201DD471B00E00027A1697A19B8
:1049100002EB0900081AA0612078C00602D42046E4
:10492000AFF30080002608E0D4E901211AF8060060
:104930009047206A401C761C20624E45F4DB2078AC
:10494000C0060AD52046AFF3008006E0D4E9012175
:1049500030209047206A401C2062381EA7F10107D2
:10496000F4DC07E0D4E9012118F805009047206A3B
:10497000401C2062281EA5F10105F3DC2046AFF3A0
:1049800000802078000602D50220BDE8F0870120D3
:10499000FBE70000074B70B50D467B4400F037F88D
:1049A0000446284600F046F810B14FF0FF3070BDC5
:1049B000204670BDEDBBFFFF4FF000020429C0F0A0
:1049C000128010F0030C00F03B80CCF1040CBCF121
:1049D000020F18BF00F8012BA8BF20F8022BA1EB93
:1049E0000C0100F02DB85FEAC17C24BF00F8012B58
:1049F00000F8012B48BF00F8012B704700487047B2
:104A00005001002001694A1C02610878704700B516
:104A10008FB0CDE901310021059105497944CDE9F7
:104A2000031011466846FFF731FE0FB000BD0000CD
:104A3000E5FFFFFF007B00F0800070474FF00002B1
:104A400000B5134694469646203922BFA0E80C5084
:104A5000A0E80C50B1F12001BFF4F7AF090728BF5F
:104A6000A0E80C5048BF0CC05DF804EB890028BFDB
:104A700040F8042B08BF704748BF20F8022B11F004
:104A8000804F18BF00F8012B7047000000487047A6
:104A9000500100207546FFF7F9FFAE460500694654
:104AA000534620F00700854618B020B5FBF782FB7F
:104AB000BDE820404FF000064FF000074FF000081F
:104AC0004FF0000B21F00701AC46ACE8C009ACE8A0
:104AD000C009ACE8C009ACE8C0098D46704710B504
:104AE0000446AFF300802046BDE81040FBF74ABB08
:104AF000490050EAC12018BF04204A0D18BF40F0F9
:104B0000010040F2FF72B2EB515F08BF40F00200BB
:104B1000012808BF052070472DE9F0414F1E00EB2A
:104B2000C7010446D1E9000115461E4637F00602CA
:104B30000DD02A46334600F0BFFD7F1E04EBC703AD
:104B4000D3E9002300F0B0FB37F00602F1D1022FC9
:104B500025D0042F13D0062F18BFBDE8F0812A46B8
:104B6000334600F0A9FDD4E90A2300F09DFB2A4654
:104B7000334600F0A1FDD4E9082300F095FB2A4656
:104B8000334600F099FDD4E9062300F08DFB2A4658
:104B9000334600F091FDD4E9042300F085FB2A465A
:104BA000334600F089FDD4E9022300F07DFB2A465C
:104BB000334600F081FDD4E90023BDE8F04100F068
:104BC00073BB012201F02DBC00F06EBB0022134626
:104BD0001046114600F018BC024A0020110701F0EF
:104BE00020BC000001FDFFFF2DE9F04D8D4F21F0AD
:104BF000004A86B005460C46BA452ADBAAEB0700F8
:104C000028430AD08848824501DC1AD1CDB106B0CC
:104C10002846BDE8F04DFFF7D4BF844A844B2846B0
:104C200000F04AFD07460E46824A834B284621463D
:104C300000F042FD06B03A463346BDE8F04D00F0C4
:104C400033BB0120FFF746FE06B0BDE8F04DFFF78D
:104C5000BDBF7A48824542DABAF1795F0BDA28465D
:104C6000FFF746FF042808BFFFF7B6FF284606B047
:104C70002146BDE8F08D2A460B46104600F01CFD8B
:104C8000834602466E480E460B4606217844FFF7DF
:104C900043FF5A46334600F00FFD804669488A4676
:104CA0005A46334604217844FFF736FF5A463346C6
:104CB00000F002FD00223B4600F0F6FA02460B46E9
:104CC0004046514600F0A0FB2A46234600F0F4FC83
:104CD00006B02A462346BDE8F04D00F0E5BA284666
:104CE00024F0004100223D463B4600F0E3FD4FF03A
:104CF000FF3201F096FB0646024653480F460B462C
:104D000006217844FFF708FF32463B4600F0D4FC0A
:104D1000CDE900014D4832463B4604217844FFF777
:104D2000FBFE32463B4600F0C7FC00222B4600F05B
:104D3000BBFA834602913046394600F05DFA804660
:104D400043480D46504517DCDDE900015A46029BF9
:104D500000F05AFB42462B4600F0AEFC42462B4682
:104D600000F0A2FA012201F05CFB304A304B00F067
:104D700093FE304A304B4CE04FF0000A52460B464F
:104D8000404600F091FACDE9031052462B461046FA
:104D9000194600F091FC32463B4600F08BFDDDE900
:104DA000033200F031FB06460F46DDE900015A46AA
:104DB000029B00F029FB83460091012230463946D0
:104DC00001F02FFB194A1A4B00F074FD06460F46FE
:104DD00001224046294601F024FB5A46009B00F080
:104DE0006BFC32463B4600F057FE06460F4601225A
:104DF0005046294601F015FB0E4DDFF858802A4633
:104E0000434600F057FD32463B4600F053FD2A462C
:104E1000434600F04FFD002CD8BF81F0004106B0A2
:104E2000BDE8F08D0000F03F0000F07F075C143318
:104E300026A6913C182D4454FB21F93F0000E03F89
:104E4000682400007E240000F223000008240000F3
:104E50003333EF3FFB21E93F2DE9F84F04460D4680
:104E600021F0004000917349814211DC724988426F
:104E700001DC06D12CB120462946BDE8F84FFFF7EA
:104E8000A0BE6E48002DCCBF6D496E49BDE8F88FBD
:104E90006D49814211DD6D498142D8BF4FF0FF3627
:104EA0006DDD20462946FFF723FE042808BFFFF7E3
:104EB00093FE20462946BDE8F88F6549654F25F0E9
:104EC0000045814233DD6449814219DD00263246C6
:104ED0004FF080432046294600F0E6F980468A4696
:104EE00001222046294601F09CFA00223B4600F0B0
:104EF000D3FD4246534600F087FA04460D463EE095
:104F000001260022BA463B462046294600F0CCF94D
:104F100080460F46002253462046294600F0BCFD3D
:104F200042463B4600F070FA04460D4627E04B49E6
:104F300081421BDDDFF828A10226002253462046CD
:104F4000294600F0B9FB00223B4600F0ADF980464F
:104F50000F46002253462046294600F09DFD42465A
:104F60003B4600F051FA04460D4608E0032622466F
:104F70002B4600203B4900F047FA04460D462246E6
:104F80002B461046194600F097FB8B468246024698
:104F90000B4600F091FB07460246334888460B4615
:104FA00006217844FFF7B8FD52465B4600F084FBCB
:104FB00082462E488B463A46434605217844FFF701
:104FC000ABFD3A46434600F077FB02460B46002E07
:104FD000504659460CDA00F067F922462B4600F09D
:104FE0006BFB01B022462B46BDE8F04F00F062BCDF
:104FF00000F05AF922462B4600F05EFB1C4A7A4428
:1050000002EBC603D3E9002300F046FD22462B46FF
:1050100000F042FD174A7A4402EBC603D3E90023AD
:1050200000F048FC009A002AB8BF81F00041BDE8BA
:10503000F88F0000000010440000F07F182D445449
:10504000FB21F93FFB21F9BF0000DC3F0000203EBF
:105050000000F33F0000F03F0000E63F0080034007
:105060000000F83F0000F0BF0A220000C821000045
:10507000662100002E2100002DE9F04D9446CCF170
:10508000000423F000464CEA0404524F46EAD4746C
:105090009A46884621F00042BC4206D8454240EA82
:1050A000050442EAD474BC4204D9BDE8F04D62461E
:1050B000FFF78ABDAAF14055A5F17F6555EA0C04BA
:1050C0000BD0022404EAAA74434DDFF810E144EA4D
:1050D000D87452EA000B04D00CE0BDE8F04DFFF7A5
:1050E000BBBE002C14BF012CBDE8F08D022C30D0CB
:1050F000032C32D056EA0C0B0AD0BE4220D1BA4261
:1051000009D126F0804622F080423346114617E04E
:1051100000291ADB25E0DFF8C8B0FB44002C04BFEF
:10512000DBE90001BDE8F08D012C02BFDBE90001E5
:1051300081F00041BDE8F08D022C0AD0032C0CD088
:10514000BA4212D1B8F1000F0BDA23482549BDE865
:10515000F08D28462449BDE8F08D28467146BDE80B
:10516000F08D1D482149BDE8F08D921B12153C2A97
:10517000C4BF19481D490EDCBAF1000FBEBF12F1C1
:105180003C0F0020014606DB624600F03DF921F0AD
:105190000041FFF761FE002C08BFBDE8F08D012C37
:1051A00004BF81F00041BDE8F08D114A114B022C83
:1051B00007D000F071FC2A46BDE8F04D0A4B00F024
:1051C0006BBC00F069FC2A46BDE8F04D064B00F0D0
:1051D00071BB00000000F07F182D4454FB2109C072
:1051E000C2200000FB21F9BFFB210940FB21F93F50
:1051F000075C143326A6A13C2DE9F04106460F4674
:1052000000F064FB041E0D4618BF0120284320F067
:105210000040C0F17F6000F1E040C00F0ED0301CB4
:1052200018BF0120384320F00040C0F17F6000F13A
:10523000E040C00F04BF0120FFF74CFB2046294689
:10524000BDE8F08121F00042A2F16052B2F5801F6A
:1052500001F0004328BFD2F17F6C0BD95FEA001C3C
:1052600043EAC20242EB507018BF704728BF20F0DB
:1052700001007047B2F5801FBCBF184670474FEA67
:10528000410C1CF5001F02D2084600F0E2BF70B5C9
:1052900000F0BCFA00000089FFF7F6BF4FF00040B5
:1052A000A0F580007047000010B591EA030F48BFD9
:1052B00083F0004300F1F883841A71EB030C05D2EC
:1052C000121943EB0C03001B61EB0C01DFF824E126
:1052D0004FEA1154A4EB135C1EEA430F18BF9EEA79
:1052E000445F73D023EA0E03DCF1200E21EA04515F
:1052F00043F4801332D322FA0CFE10EB0E0023FA93
:105300000CFE41EB0E01CCF1200E03FA0EFE10EB69
:105310000E0051F10001B1F5801FCCF1200E32D208
:1053200001EB045112FA0EF2BDE8104058BF70476D
:10533000401C38BF5FEA420218BF7047002814BF04
:1053400020F0010041F100014FEA410313F5001F75
:1053500038BF7047A1F1C04100F0A6BA012A43EB63
:105360000302ACF1200CDCF11F0E32BF4FF0000E37
:1053700023FA0CF310EB030041EB0451B4EB115F83
:10538000D0D0A1EB045101F5801149085FEA30004B
:1053900001EB04510ED350F1000038BF12FA0EFE9B
:1053A00008D1BDE81040C9E7401C38BF5FEA42029F
:1053B000CAD1C3E7BDE810404FEA410313F5001F0F
:1053C00038BF7047A1F1C04100F06EBA9EEA445F59
:1053D00008D011EA5E0FBDE8104004BF01F00041A3
:1053E00000207047BDE8104070B500F00FFA00BF14
:1053F00064FBBE3E0000E0FF02494FF0000000F0F9
:10540000DEBF00BF0000F87F2DE9C04130B4DFF8F7
:10541000A0C23CEA111418BF3CEA131400F0EC805F
:1054200081EA03051CEA111444EAD57418BF1CEA8A
:10543000131500F0C780A4EB05044FF0004545EAC2
:10544000C12145EAC32341EA505143EA525304F1D2
:105450007F74994204F500344FEAC0204FEAC2221B
:1054600008BF904200F09C804FEA13650FF240168F
:10547000765D4FEA134506FB05F7C7F1807706FB1B
:1054800007F74FEAD737A7FB03687642C8F580389D
:10549000A7FB06CE38BFA8F1010807FB08E64FF0CE
:1054A000000EA6FB028CE6FB03CEDCF1000CCEF175
:1054B000004E38BFAEF1010EA6FB0C584FF00007AE
:1054C0004FF00005E6FB0E87A1FB08C6A0FB07CE48
:1054D00016EB0E0645F10005E1FB076515F1E04E00
:1054E0007EBFA4F580345FEA46066D4116F1800761
:1054F00045F100054FEA17274FEA066647EA0567B8
:10550000A6F1DE46B6F1805F4FEA15251FD9384671
:1055100024F0010C05EBC471BCF1FE6F01EB0C1122
:1055200002D8F0BCBDE8008124425CBF01F5801EBA
:105530009EEAC47F02D4F0BCBDE80081244238D486
:10554000F0BCA1F1C041BDE8004100F0ADB94FEAA7
:10555000D22242EA43524FEAD323A7FB02864FEA04
:10556000D02040EA415007FB03661EEA0E0F4FEAC7
:10557000D12105FB026658BFA6EB0056B6EB0056DC
:105580004FEA520E4EEAC37E18EB0E0E56EB530E48
:10559000BDD518EB02085E417F1C55F10005B6E74A
:1055A0004FF480154FF000074FF000064FF0000851
:1055B000ADE7F0BC4FF0000001F1C04101F0004147
:1055C000BDE8008111EA0C1F0CEA131500D00CE0B5
:1055D00013EA0C1F00F025804FF00000F0BC81EAB8
:1055E000030101F00041BDE80081F0BCBDE80041CD
:1055F00081EA030100F058B9F0BCBDE8004170B584
:1056000000F004F9097EFC3E00F007B881EA0301CE
:105610004FF0000001F00041704781EA030100F003
:1056200043B9F0BCBDE800414FF00000214970478C
:10563000FFFDFBF9F7F5F4F2F0EEEDEBE9E8E6E457
:10564000E3E1E0DEDDDBDAD8D7D5D4D3D1D0CFCDDE
:10565000CCCBCAC8C7C6C5C4C2C1C0BFBEBDBCBB17
:10566000BAB9B8B7B6B5B4B3B2B1B0AFAEADACAB12
:10567000AAA9A8A8A7A6A5A4A3A3A2A1A09F9F9EEC
:105680009D9C9C9B9A99999897979695959493939E
:10569000929191908F8F8E8E8D8C8C8B8B8A898935
:1056A00088888787868585848483838282818180B8
:1056B0000000FF070000F87FDFF848C170B51CEA62
:1056C000111E1EBF1CEA13159EEA0C0F95EA0C0F63
:1056D00000F06F8081EA030423EA4C134EEAD47E83
:1056E00021EA4C1141F4801143F48013AE44A1FB34
:1056F000024CA0FB0365AEF17F7E361955EB0C051D
:10570000A1FB034C4CF10003A0FB021C16EB0C06A2
:10571000654153F10003094218BF46F0010613F436
:10572000007F0BD14FEA03314FEA0530340341EAE1
:10573000155140EA16506FF003020AE04FEAC32108
:105740004FEAC520F40241EA555140EA56506FF045
:10575000020202EB2E4201EB025585EACE710AD01D
:105760005FEA440C18BF24F0004450F1000041F1FE
:10577000000120EAD47040F2FE7C624500D270BD88
:10578000A84214BF4FF080444FF04044002E08BFA1
:105790000024BEF1806FA8BFA1F1C041BDE87040F8
:1057A00080F282804FF0000001F1C04101F0004121
:1057B00070479EEA0C0F0CEA131518BF95EA0C0F00
:1057C00006D04FF0000081EA030E0EF0004170BDDC
:1057D00000F01CF88900013E00F007B800F009B89D
:1057E0004FEA430C5FEA5C5C08D081EA030100F0F9
:1057F0005BB84FEA410C5FEA5C5CF6D14FF0000009
:10580000014970470000FF070000F87F0EF1020E0B
:105810002EF0030E5EF8046B364205D4012A43EBEA
:10582000030515F5001F12D8012841EB010C1CF5EA
:10583000001F0CD80ED14FEAD17C15F5001F0CEBE0
:105840004C0C0CF1020C08BF4CEBD37C04E04FF085
:10585000080C01E04FEAD37C0CEB4C0526FA05F668
:1058600006F00706B6F1040C06D20EEB860CBDE876
:1058700070404CF0010C6047DFE80CF0090B0202AD
:105880004FF000414FF00000A1F5002170BD194616
:105890001046012851EB010418BFD4F5001484BF51
:1058A000002001F0004170BD0808A0F500114FEA8A
:1058B0003101704791EA030F10B581F000413FF5C7
:1058C000FBAC83F0004300F0EFB800002DE9F0419D
:1058D00001F5801CBCF5001FC0F2C3804FEA115CCB
:1058E00021EA0C510CF1FD0C41F480115FEA5C0CD3
:1058F0000CF5C07C01D3400049413DA4890241EA36
:10590000905187028E0E0A0CA45D04FB04F602FB84
:1059100006F6C6F14046A4FB0662F60D46EA4226AC
:1059200006FB06F4A4FB01235242C3F1404338BFF7
:105930005B1EA6FB02420024E6FB0324D20B42EAD4
:105940004446A6FB0623A1FB02E2A3FB07E4A4183E
:105950004FF0000252F10002E3FB01426442C2F147
:10596000404E38BFAEF1010EA6FB04234FF00002FB
:10597000E6FB0E32A2FB03464FF00004B61954F1C9
:105980000004E2FB0264A1FB06E6A4FB07E816EBB9
:1059900008064FF0000858F10008E4FB0168764261
:1059A000C8F1405838BFA8F10108A2FB06E4A3FBE8
:1059B00008E52D194FF0000454F10004E2FB0854EF
:1059C000A1FB05E6A7FB04E818EB06084FF000066C
:1059D00056F10006E1FB048618F1200556F1000699
:1059E000A809A8F11B08B10908F03F08B8F10A0F8F
:1059F00040EA86601CD901EB0C51BDE8F08100BF84
:105A0000FCF5EEE8E2DDD8D3CFCBC7C3C0BDB9B655
:105A1000B4B1AEACA9A7A5A3A19F9D9B9A9896955A
:105A20009392908F8D8C8B898887868584838281E1
:105A3000A0FB006800FB01F208EB4208B8EB8728E6
:105A400007D5341858EB0104D5D5401C51F100019D
:105A5000D1E7341A78EB0104CDD4401E71F1000176
:105A6000C9E75FEA4C0C5FEA9C5C0DD105D34FF0AF
:105A7000000001F00041BDE8F081BDE8F04170B5E3
:105A8000FFF7C4FE6DDBFFBEBDE8F0414FF0000044
:105A9000004970470000F87F10B591EA030F48BF36
:105AA00083F000433FF508AC841A71EB030C07D276
:105AB00012198CF0004C43EB0C03001B61EB0C0142
:105AC000DFF8A4E14FEA1154A4EB135C1EEA430F84
:105AD00018BF9EEA445F00F0B08023EA6E03524292
